:10000000F00C002039290000092A0000092A00000C
:1000100000000000000000000000000000000000E0
:10002000000000000000000000000000092A00009D
:100030000000000000000000092A0000092A00005A
:10004000092A0000092A0000092A0000092A0000E4
:10005000790E0000092A0000A10A0000000000003B
:10006000092A0000CD110000DD110000ED11000093
:10007000991B0000411C0000511C0000E109000018
:10008000092A0000092A0000092A000010B5064CC0
:100090002378002B07D1054B002B02D0044800E049
:1000A00000BF0123237010BD2000002000000000CD
:1000B00090370000084B10B5002B03D007490848C3
:1000C00000E000BF07480368002B00D110BD064BBD
:1000D000002BFBD09847F9E7000000002400002027
:1000E000903700009037000000000000F0B5C646D1
:1000F00000B5244B10221A6040271F60F132FF32F6
:100100001A608022D2001A60802212011A608022B6
:1001100052011A60802292011A608021C90119607F
:10012000C12080001A58FF24A446A2431A501A582E
:10013000154CA04622408024E40322431A50C222D8
:1001400092009858114D2840084398509E584046B8
:10015000064026439E5098584646304004439C50E3
:10016000043298586446A043384398509858284021
:1001700008439850985805402943995004BC90462C
:10018000F0BDC04600E100E0FFFF00FFFF00FFFF01
:1001900010B5144B1B78002B0FD1134B1A88831A00
:1001A0000933122B0FD9114B1B780133DBB2032B10
:1001B00015D900220D4B1A7004E00B4B1880002259
:1001C000084B1A7010BDD3009A1810180A21084B5A
:1001D0009847054B18800022044B1A70F2E7034A37
:1001E0001370EFE73E0000203C000020400000209C
:1001F0009D34000010B5174B9847174B9847174B85
:100200001B780133DBB20A2B20D90022134B1A7062
:1002100013490A88120A134B1A710A88D2B25A710A
:1002200011490A88120A9A710A88D2B2DA710F4902
:100230000A88120A1A720A88D2B25A720C490A88BB
:10024000120A9A700A88D2B2DA7010BD034A13708B
:10025000FBE7C04685060000910100003F0000203A
:1002600096010020B0080020940100209201002097
:100270008E01002070B58EB0002401940294C0233A
:100280009B0303936B461C745C7401259D74DD74A1
:100290001C7524236A46D4540C22002106A8144B52
:1002A00098476B461C7020236A46D5540694114B20
:1002B0000A93114B0B93114B0C93114B0D93114E51
:1002C00011493000114B984734682000104B984773
:1002D0001F23184085400F4B1D603268D369002BE7
:1002E000FCD123680222134323600EB070BDC046C8
:1002F000CF360000030016000300170003001800AB
:1003000003001900B401002000100042491200004F
:10031000AD11000000E100E010B51C4B1B781C4A39
:100320001278DBB2934218D0184B1B78DBB2194A13
:10033000D35CDBB20022DA2B17D01449154C1648D7
:100340000B78DBB2E35CDBB283540B780133DBB2B6
:100350000B7001320A2AF3D110BD00230F4A13702B
:100360000A4A13700A4A1370F6E70849094C0A480A
:100370000B78DBB2E35CDBB283540B780133DBB286
:100380000B700132102AF3D1E6E7C046430000208B
:1003900041000020F0010020C4080020AF0100202F
:1003A00010B5064C022206492000064B984737221A
:1003B000A35C04210B43A35410BDC046B40100202C
:1003C0006D0400005D14000070B50C4D2C68200019
:1003D0000B4B98471F2318401E3B8340802209493E
:1003E0008B502A68D369002BFCD18F332375237679
:1003F000236802229343236070BDC046B4010020ED
:10040000AD11000000E100E0F0B583B010226B46B2
:10041000DA7101320E4B1A700E4B98470E4B98470B
:100420000E4B1B78002B11D101220C4B1A700C4E75
:10043000074D0C4C0A233200290020000A4FB84710
:100440006B46D87107331B78002BF3D103B0F0BD96
:10045000B008002075020000A10300004200002047
:100460009C080020B40100207514000070B5012222
:10047000214B1A700022214B1A70214B1B78002B44
:100480001BD1204B1B78DBB20022DA2B24D01E4874
:100490001C4D1E4C0378DBB2A95CC9B2E154037851
:1004A0000133DBB2037001320A2AF3D10A23154A61
:1004B00017491848184CA04770BD114B1A70154CBD
:1004C0002000164B9847164B98470A230D4A1049AF
:1004D0002000114CA047EFE70B480A4D0B4C037866
:1004E000DBB2A95CC9B2E15403780133DBB203701B
:1004F0000132102AF3D1D9E7AF010020AB0100206F
:10050000AC0100209C08002041000020F0010020E8
:10051000B0080020B401002075140000FD11000097
:10052000090400000123024A1370024A1370704745
:100530004E000020A001002010B50D4B1B6A5B0689
:100540000FD40C480C4B98470C4B1B88C01A0C4B13
:100550001860002106200B4B984701220A4B1A70A5
:1005600010BD0448044B9847044B1880F8E7C04678
:1005700000440041B8020020E71E00004C000020AB
:1005800044000020590E00004A00002010B58EB033
:1005900001AA00230021137093709371138100202E
:1005A00050709172D17211739173517311745361C0
:1005B0009361117713625362138553859385C0232A
:1005C000DB009380074C08492000084B98472268BD
:1005D000D37B5BB2002BFBDB138802210B43138020
:1005E0000EB010BDB8020020001C0042851C0000A7
:1005F00010B584B001AC2000084B98470623019346
:10060000C023DB026360022323720133E372210003
:100610000620034B984704B010BDC046510F0000A0
:10062000650F000070B500210620074B9847074C66
:100630008025A5610A20064B984765610021054881
:10064000054B984770BDC046350E00000044004180
:1006500089090000B8020020B51E000000B583B073
:1006600001A901234B7000228A700B700720034BF5
:1006700098478022024B5A6103B000BDDD0F000095
:1006800000440041064B1B78002B06D00022044B8F
:100690001A70044B1A68044B1A80034B1888704771
:1006A0004A000020440000204800002010B50C4CF7
:1006B00000220C4920000C4B984720680B4B9847B0
:1006C0000B4B1A5C1F231340012211009940094B68
:1006D0001960637E01210B43637623685A7310BD52
:1006E000B802002025050000A91B0000611C0000C5
:1006F000E036000000E100E010B5054B1B78002B50
:1007000000D110BD0022024B1A70024B9847F8E747
:100710004E0000202506000010B5002206210448E6
:10072000044B984700210620034B984710BDC04654
:1007300039050000090E0000350E000010B5024B0F
:100740009847024B984710BD8D050000F105000049
:1007500010B5024B9847024B984710BDAD060000FC
:100760001907000010B5034B9847034B9847034BFC
:10077000984710BD5D0600003D07000051070000CE
:100780000B7803704B7843708B788370CB78C37091
:100790000A7902714A7942718B798371CB79C3717D
:1007A0000B7A03727047000010B50D4903787F2261
:1007B00013400B700378DB094B7043781B024B80AE
:1007C000847823434B80C37806491A400A70DB09BA
:1007D0004B7002791202437913434B8010BDC0461F
:1007E0005C0000206000002010B5124B1B78002B2D
:1007F00003D0114B1B78002B08D1104B1B78002B1A
:1008000003D00F4B1B78002B09D110BD0023094AE0
:100810001370094A13700B480B4B9847EDE7002300
:10082000044A1370064A137008490948094B98474F
:10083000EBE7C0468D0100208C0100209F010020C5
:100840009E01002050000020612000006000002078
:100850005C000020BD2E000070B582B010226B46F7
:10086000DA712A4B78321A7022325A7011329A7029
:100870001132DA70264B1B78002B01D102B070BD0B
:10088000244B9847244B1B78DBB2D12B1FD00CD9BB
:10089000DA2B2ED0DB2B35D0D22B15D11F48204B95
:1008A000984701221F4B1A700EE0102B09D0D02B55
:1008B0000AD11A491C481D4B984701221C4B1A703B
:1008C00002E016481B4B9847124B9847D6E7124B4D
:1008D00058789978C9B2DE78F6B21D79EDB2012464
:1008E0002040154B9847200030402900134B984773
:1008F000EAE70D4C094920000C4B98472000104BAB
:100900009847E1E70F4B9847DEE7C046D80800203C
:10091000AF01002019030000C4080020C508002012
:10092000A90700009F01002050000020810700005F
:100930008D0100204D2D0000D1310000313200002A
:10094000612000000521000070B50020084B984789
:100950000500084CFA218900A047074B1860074999
:100960002800A047064B18600522064B1A6070BD90
:10097000C9260000893300000000002040420F001B
:100980000400002010E000E030B5084B1C68084A65
:10099000002580214902013807D3002CFBD0546088
:1009A000956013680B42FCD0F5E730BD04000020D1
:1009B00010E000E030B5084B1C68084A0025802193
:1009C0004902013807D3002CFBD0546095601368AE
:1009D0000B42FCD0F5E730BD0000002010E000E045
:1009E00070B52E4B1C6823681D7EEDB2EA0705D555
:1009F000E27ED20702D5A27ED20716D46B0708D5B5
:100A0000042322681376E37E9B0702D5A37E9B070F
:100A10003CD4AB0708D5022322681376E37E5B073C
:100A200002D5A37E5B0735D470BD01221A762268F9
:100A3000537E5BB2002BFBDB61698B1C6361538BC4
:100A40009BB20B80238B013B9BB22383002B11D0E5
:100A5000637F002BD2D02268537E5BB2002BFBDB7E
:100A6000137B02210B4313732268537E5BB2002B6E
:100A7000FBDBC3E7237F052BC0D1002323770133A2
:100A8000226893752000A3689847B7E72000E368C1
:100A90009847BEE7236920009847C5E7D4020020A5
:100AA00010B5264B984726490B8C072213409B0014
:100AB0002448185803781A403F23CA540F33CA5C9D
:100AC000D2B203781B012049C91849881F4CE3188A
:100AD0005B88CB1A4361D3070FD501214E23184AF7
:100AE000D1543E3B4374037CDB0703D54368002BA2
:100AF00000D09847164B984710BD93070DD502219B
:100B00004E230F4AD15400234374037C9B07F1D535
:100B10008368002BEED09847ECE75307EAD5042111
:100B20004E23074AD154483B4374037C5B07E1D50D
:100B3000C368002BDED09847DCE7C04631210000B7
:100B40000048004164000020E002002080000020F6
:100B50007121000000230370437003228270C37070
:100B600003717047F8B5CE46474680B505000E00C4
:100B7000454B9847454B1B78002B18D1444B5A697D
:100B800020210A435A61DA6910390A43DA61414B7C
:100B90001A880E398A431A8001221A803E4A5A6303
:100BA0003E4A9A633E4A1A80384B01221A70364BED
:100BB0009847364B5B68DA070FD55B0801240122A2
:100BC0001A420BD05B080134E4B2052CF8D1354B46
:100BD0009847344B9847142051E000242B4A516821
:100BE0000123A3400B435360137A013B13722D4B37
:100BF0009847FF2CEDD02C70072398461C40254FBA
:100C000038339946FC540133FA5C02218A43FA5482
:100C10000124FC541C4B98472B78424613404A460B
:100C2000BB543B692A789440A3433B61327852011C
:100C30006023134072781202F82149010A401343DD
:100C4000B2789205C02109040A401343F1780029C3
:100C500004D007220A4008210A4313433279002AAC
:100C600001D0102213430B4A53640E4CA0470023BB
:100C7000AB612B789B000C4A9D50A04700200CBC18
:100C800090469946F8BDC04631210000080000207A
:100C90000004004000480041E002002080000020E5
:100CA000020F0000712100006400002070B50400F4
:100CB000194B9847637C052B08D0A3695B889BB2CE
:100CC000002B07D1154B9847172070BD134B984741
:100CD0000520FAE74026124B1E60227807231A40AF
:100CE000104D3F216A5422780F498A5C13404D22EF
:100CF000AB5405236374207800010C4BC018A16924
:100D00003D3A0B4B9847AB5D02221343AB55034B67
:100D100098470020D9E7C04631210000712100002A
:100D200000E100E000480041D0000020E002002087
:100D3000BD360000F0B50A78038801263240012450
:100D4000A343134303804B78048803273B405B0095
:100D5000062294431C4304808D7804883D40ED00B6
:100D600018239C432C430480CA7803883A4012021B
:100D7000164C2340134303800B79048833409B02B5
:100D8000134A14401C4304804D7904883540ED0219
:100D9000104B1C402C4304808A7903883240120394
:100DA0000D4C234013430380CB7907221A4003885C
:100DB0005203DB04DB0C134303800B894380CB68B5
:100DC00043600B6983604B69C360F0BDFFFCFFFFAC
:100DD000FFFBFFFFFFF7FFFFFFEFFFFF427C052355
:100DE000052A0BD08369002B0AD0DA68002A03D0C9
:100DF000DB68DA68002AFBD1D9600023180070474D
:100E000081610023FAE700001723002A01D01800AF
:100E100070478B00064A9B58002B03D0834205D0B5
:100E20001D23F4E7890088500023F0E70023EEE754
:100E3000340300201723002901D018007047002236
:100E40001F2800D8034A012383401361D360002385
:100E5000F3E7C046001800401723002901D018000E
:100E6000704700221F2800D8024A01238340936064
:100E70000023F4E70018004070B50022104B1A70F0
:100E8000002310491F25104E0D4C0AE00D4908E0C3
:100E900023780133DBB223700F2B10D800211F2BD6
:100EA000F4D9280018400122824008691042EFD08E
:100EB0000A619B009B59002BEAD09847E8E770BD78
:100EC000300300200018004034030020044A137847
:100ED00002210B43137053785BB2002BFBDB70478E
:100EE0000018004000B583B0124A936940210B43BB
:100EF000936101A900230B7005200F4B9847052033
:100F00000E4B98470E4A137801210B431370537808
:100F10005BB2002BFBDB0B4B19004031002204C3FA
:100F20009942FCD11022084B1A60084B984703B035
:100F300000BDC04600040040E12700005527000026
:100F4000001800403403002000E100E0CD0E000056
:100F500000230360436001220272427283720233F3
:100F6000C3727047F0B583B005000C0001A90023DF
:100F70004B70CB7023790B70237A8B702078154BD4
:100F8000984700201F2D00D8134807222A409200BE
:100F9000E77AA37A002B01D008231F43EB089B00BC
:100FA000C31899690F269640B14397403A000A4307
:100FB0009A61637A002B06D143690122AA409343C8
:100FC000436103B0F0BD42690123AB401343436169
:100FD000F7E7C046D92800000018004000B583B0EC
:100FE00001AB80221A700A785A704A789A708A780F
:100FF000DA701900014B984703B000BDD9280000F2
:1010000010B5490840230024814202D2180010BDC7
:101010001C00091A631C9BB28842F9D94023FF2C9B
:10102000F4D814800023F1E710B582B004000E4B11
:101030001B78002B07D0002905D10B4B5B7883422E
:1010400010D01D200CE001A90C700D20074B984713
:101050000D20074B9847044B5C7001221A7000204A
:1010600002B010BD0020FBE7D8000020E1270000FF
:1010700055270000204B984217D0204B984224D08F
:101080001F4B984201D000207047012907D000294A
:101090002BD0022905D0032905D00020F4E71948F8
:1010A000F2E71948F0E71948EEE7012907D00029CF
:1010B0001DD0022905D0032905D00020E4E71448FB
:1010C000E2E71448E0E71448DEE7012907D00029E9
:1010D0000FD0022905D0032905D00020D4E70F48FE
:1010E000D2E70F48D0E70F48CEE70F48CCE70F48CC
:1010F000CAE70F48C8E7C046000C00420010004293
:10110000000800420300050003000600030007007A
:101110000200170003001E0003001F000300170059
:101120000300100003001900030004000200160071
:101130000300160030B585B001AA0B4B32CB32C28A
:101140000300019A82420CD0029A824207D000200A
:10115000039A9A4201D005B030BD023002E001206E
:1011600000E00020C0B2F6E7E4360000704700005F
:1011700030B50A4B1B78002B0CD1094C094D25606A
:10118000094B00221A6065605A60A5609A600132BE
:10119000024B1A708000024BC15030BDDA000020B3
:1011A000DC0000206D1100007403002010B582B037
:1011B00001AC09232370013363700133A370024B28
:1011C0009847205602B010BD3511000010B5024BF3
:1011D0001B680020984710BDDC00002010B5024BB2
:1011E0005B680120984710BDDC00002010B5024B61
:1011F0009B680220984710BDDC00002070B50500F8
:10120000046820000E4B98471F2318401E3B834064
:1012100080220C498B502A68D369002BFCD18F3374
:101220002375237623680222934323602A68D369B7
:10123000002BFCD1236801221343236070BDC046FC
:10124000AD11000000E100E0F0B58BB005000C002E
:10125000160029600B681C209B0701D50BB0F0BD60
:101260000B681738DB07F9D408006F4B98476F4AB3
:10127000116A871C0123BB400B43136209A9242771
:10128000F35D0B700E30C3B201931800684B9847A2
:101290000198684B9847F05D0021674B9847337879
:1012A000012B3FD03378002B03D12368082213434E
:1012B00023602B000C3329002831002204C38B4209
:1012C000FCD10023EB62AB620024AB862B86363365
:1012D000EC540133EC540133EC54353B6B722C71FC
:1012E0002868514B984707005449554B9847BF0011
:1012F000544BFD502F6804AB80221A705C707F3A0B
:101300009A70DC703378002B02D1002204AB9A7003
:10131000B36A0593F36A0693336B0793736B089371
:1013200000240BE023680C2213432360BAE7380043
:10133000454B98470AE00134042C10D0E1B2A300D9
:1013400002AA0C201218D0580028F0D0431CF2D06A
:1013500004A90870000CC0B23C4B9847EBE7337807
:101360006B71337CAB71B37CEB71337D2B720022DC
:1013700002ABDA803378012B12D03378002B26D1E0
:10138000B069B28B7B6AF17F0904B47F21431943B2
:1013900079622023F35C002B1BD040231A4318E012
:1013A0002868214B98470E30C0B2294B984701005E
:1013B00002AB9A1DB069274B984703001720002BFA
:1013C00000D04BE702AB06331B783B73D5E7002216
:1013D00000207368B1680B43F1680B430343317C11
:1013E0000A43717C002903D11B498978890701D5FB
:1013F00080210B43B17C002902D0802189020A435D
:10140000F17C002902D0802189000A43317D002926
:1014100002D0802189010A4339680B433B607B6815
:101420001A437A60002019E73511000000040040DB
:10143000E12700005527000029100000BD1400001E
:10144000711100007403002075100000D9280000FD
:10145000FD2700000110000000200041931C9B00AC
:10146000C31859603621012393401A00435C13438B
:101470004354704730B51724002B01D1200030BDF4
:10148000C5790534002DF9D01C34055D333C052D9C
:10149000F4D0838603868262C16205223823C25457
:1014A000363B437203689A7580321A76427900247B
:1014B000002AE3D102321A769A75DFE7F8B5800088
:1014C000504BC5582E683723EF5C3622AA5C174074
:1014D000337EB47D1C40E30714D56B79002B11D10A
:1014E0006B7A002B0ED0EB6A1A780133EB62B26292
:1014F000AB8E013B9BB2AB86AB8E9BB2002B01D176
:1015000001333375630705D5738B5B071DD5B36A4C
:1015100004237383A3070AD56B79002B11D1012211
:10152000394B1A706B7A022B58D00223337623077B
:1015300007D56B79002B04D1083333753376BB069E
:1015400052D464B2002C53DBF8BDB36ADBB2AA6A92
:101550001370A96A4B1CAB622B8E013B9BB22B868E
:101560002A4A13780133DBB21370012B1BD02B8E68
:101570009BB2002BCED1254A1370254A1370254A01
:101580001370254A13703822AB54043333756B7AC9
:10159000022B1DD06B7A002BBCD1BB07BAD528001B
:1015A0002B699847B6E70122194B1A700023194A94
:1015B0001370194A13700B78DBB2DA2BD7D1AB8ECC
:1015C00006339BB2AB862B8E06339BB22B86CEE7BF
:1015D0007B079FD528006B6998479BE77B07A4D5BD
:1015E00028006B699847A0E728002B6A9847A8E76E
:1015F0008023337533767B06A6D56B6A280098471F
:10160000A2E7C04674030020AC010020E8000020DF
:10161000AD010020AA010020AB010020002070478E
:1016200030B504001720032900D930BD114DAA425E
:10163000FBD82068002B10D0802464028C40036B00
:101640001C42FCD1802424038C4083681C42FCD1C2
:101650001C3189000A500020E7E7802464008C4098
:1016600083681C42FCD11031890041184A60002077
:10167000DBE7C046FFFFFF00002303604C4A4260E7
:101680008372C372037343720372C3610362436262
:101690008362037543758375C3750376437603745C
:1016A00043748374C3742C228354013283540132F3
:1016B0008354013283540132835401328354013202
:1016C00083540132835401328354013283540132F2
:1016D00083540132835401328354013283540132E2
:1016E00083540132835401328354013283540132D2
:1016F00083540132835401328354013283540132C2
:1017000083540132835401328354013283540132B1
:1017100083540132835401328354013283540132A1
:101720008354013283540132835401328354013291
:101730008354013283540132835401328354013281
:101740008354013283540132835401328354013271
:101750008354013283544132835483658367013259
:101760008354C365C3670132835403661A3A8350B6
:101770001B3283544366173A83501832835483666E
:10178000143A835015328354C366113A835012328F
:10179000835403670E3A83500F32835443670B3AE6
:1017A000835001210C328154013283547047C0466A
:1017B000FFFFFF00F0B5DE4657464E464546E0B512
:1017C0008DB006000C0015000800CD4B98470300B3
:1017D000CC490A6A202002430A6222680438920730
:1017E00006D50DB03CBC90469946A246AB46F0BD2E
:1017F000226801271740F4D1C34A0538296891426D
:10180000EFD869689142ECD8E969914200D98BE13F
:10181000296A914200D989E1696A914200D987E138
:10182000A96A914200D985E12A7C013A504250418F
:10183000020601926A7C012A31D0AA7C012A34D0A6
:10184000EA7C012A37D0A122AA5C002A04D0802297
:1018500012010199114301912A7A511E8A41920085
:1018600003926A7A012A2CD03522AA5C032A00D975
:1018700062E12C21695C0F2900D95DE1287B04908D
:10188000E87A05902D208246AA44002002978446DB
:1018900006960E00A0465446A946079347E08022CC
:1018A0009204019911430191C7E78022D204019962
:1018B00011430191C4E7802212050199114301915E
:1018C000C1E7039911430391CEE79202C0252D0190
:1018D0002A4032430D7903262E40324355462A438F
:1018E0004E797601602535402A438D792D02C02638
:1018F000B60035402A43CD792D03E026F601354068
:101900002A43104303431F4308AB624608201B18B9
:101910009F50042A28D08A7C032A00D90CE14E7AF1
:101920000A3404239A46D4440F2E00D904E1360623
:10193000F0231B051E40210025782D04FF231B04E6
:101940001D40AA4663788020002B00D102988F7832
:101950000823002F00D1029BCF78BB4610275D469D
:10196000002DB2D1029FB0E7069E44464D46079B2C
:101970004846503049464131002280277F02BC460C
:101980000127B9460227FF37BA461F001300A046B9
:101990003C0007E0574697403B430132013002319B
:1019A000082A0ED00778002F02D0674697403B43A5
:1019B0000F78002FF1D0022FECD04F4697403B43D9
:1019C000EBE722004446984613006A7E120130215C
:1019D0001140287E0722024011430022802040024D
:1019E0000F0002E00132042A07D0A918097D00295E
:1019F000F8D0010091400F43F4E7B946321D3000A2
:101A00003430002102C29042FCD100227263B263E2
:101A10009B003E4A9E503460A023EA5C643BF25433
:101A200009A9AB7A0B701120394B98471120394B1B
:101A300098472F0098372E00583678239A46AA44A4
:101A4000773B9B46230054469A4603E00137043611
:101A5000B44214D03B78002BF8D008AB5A469A70A9
:101A6000002308AAD37013002022B21812781A702B
:101A70005A465A7030781900274B9847E6E7544683
:101A8000049B1B03059A12021343019A134323601C
:101A90000422A3681A42FCD1FF2323710422A36805
:101AA0001A42FCD16B461B7B63710A9BE3600B9B64
:101AB00023614346A361194AA3681342FCD14B46F4
:101AC000E3631022A3681A42FCD12B686363144AB3
:101AD000A3681342FCD16B6823641C3500211148B4
:101AE00002008A40A3681A42FCD104CD0B001033D7
:101AF0009B00E3185A6001310429F1D1002070E6FF
:101B00001D16000000040040FFFFFF0080030020BE
:101B1000E127000055270000D928000040000200FE
:101B2000800004000001080017205AE6172058E63C
:101B3000172056E6172054E6172052E610B53C232E
:101B4000C35C014CA04710BD21160000F0B5C6468D
:101B500000B580000E4BC7583B68DE6ABB6B7A6BE2
:101B600013401E4000240B4B984602E00434302CF6
:101B70000AD04346E5583542F8D03B195B68380037
:101B800098473B68DD62F1E704BC9046F0BDC04673
:101B900080030020F036000010B50020014B98476C
:101BA00010BDC0464D1B0000931C9B001950022A1B
:101BB00009D0032A0CD0012393401A00037E13435B
:101BC000037600207047037E102213430376F8E764
:101BD000037E202213430376F3E7000070B58000F4
:101BE000164BC45823689D7B227E637E13401D40A4
:101BF000EB0706D4AB070BD4EB0610D4AB0615D419
:101C000070BD2000A3689847012322689373F1E711
:101C10002000E3689847022322689373ECE72000D2
:101C200023699847102322689373E7E720006369CC
:101C30009847236820229A73E2E7C0468403002075
:101C400010B50020014B984710BDC046DD1B0000B9
:101C500010B50120014B984710BDC046DD1B0000A8
:101C6000064B984208D0064A0023904201D0180043
:101C700070470133DBB2FAE70023FBE700180042AC
:101C8000001C0042F0B585B004000D0016000800ED
:101C9000824B9847070003AB12221A705A7002ABAE
:101CA0002E321A8040325A800023A360E360236101
:101CB0006361237663768200794BD4502560B378D4
:101CC000082B06D023712B880520DB0705D505B02E
:101CD000F0BD1720FA07FAD4F4E7EB7B1730DB06E8
:101CE000F5D42B889B07F2D4337C002B00D07AE00C
:101CF000337F002B00D082E06A49086A7A0002AB89
:101D0000D35A03430B62B378082B00D187E03378B2
:101D10006A46137003ABDF5D69463800624B984733
:101D20003800624B98473189B3880B43B178B27958
:101D3000114319437378002B02D080231B011943F0
:101D40002268D37B5BB2002BFBDB2980717B4B1EAF
:101D500099418900B37B002B01D0012319432268EC
:101D6000D37B5BB2002BFBDBFF232B71002905D05B
:101D70002268D37B5BB2002BFBDB6971B17AF37A0B
:101D8000002B01D010231943337B002B01D02023DB
:101D900019432268D37B5BB2002BFBDBA97122685D
:101DA000D37B5BB2002BFBDB2379042B3FD0082BCA
:101DB0005ED01720002B00D089E7D37B5BB2002BCD
:101DC000FBDB338D2B822268D37B5BB2002BFBDBEA
:101DD000738D2B832268D37B5BB2002BFBDBB38D2F
:101DE0006B83002073E701A901238B700022CA7066
:101DF000327E0A704B70307D2D4B984778E701A9F1
:101E000001238B700022CA702432B21812780A7033
:101E10004B701F33F3181878254B98476CE7086A06
:101E20007A1C520002ABD35A03430B626FE7D37B99
:101E30005BB2002BFBDB2823F35C2B742268D37B83
:101E40005BB2002BFBDB2923F35C2B752268D37B71
:101E50005BB2002BFBDB2A23F35C2B762268D37B5F
:101E60005BB2002BFBDB2B23F35C6B7600202EE7B1
:101E7000D37B5BB2002BFBDBB36A2B612268D37B85
:101E80005BB2002BFBDBF36AAB612268D37B5BB2F6
:101E9000002BFBDB336BEB61002018E7611C0000BB
:101EA0008403002000040040E127000055270000C3
:101EB000D92800000268D37B5BB2002BFBDB0379DF
:101EC000042B05D0082B0BD01720002B04D0704713
:101ED000C9B211740020FAE789B211820020F6E736
:101EE00011610020F3E70268D37B5BB2002BFBDBC0
:101EF0000379042B05D0082B09D00020002B03D038
:101F00007047107CC0B2FBE7108A80B2F8E7106916
:101F1000F6E70000F0B5D6464F464646C0B582B05B
:101F200082466B46DA1D0023137069468B71694641
:101F30004B7113701378DBB2032B00D989E00023B7
:101F40006A46D11DC022944603276A46541D424E5C
:101F5000424D0A7808788046520060461041524649
:101F6000527802404046381A40000241D2B22270F4
:101F70002278D2B2B25CEA540133DBB20A78013281
:101F8000D2B20A700A78D2B2032AE2D96A46002194
:101F9000D17107321278D2B2032A25D86A46D11DF0
:101FA000C022944603276A46541D2B4E2B4D0A78B7
:101FB000087880465200604610415246127802402E
:101FC0004046381A40000241D2B222702278D2B282
:101FD000B25CEA540133DBB20A780132D2B20A7041
:101FE0000A78D2B2032AE2D96A460021D1710732B7
:101FF0001278D2B2032A25D86A46D11DC02294464F
:1020000003276A46541D144E144D0A7808788046FA
:102010005200604610415246927802404046381ABB
:1020200040000241D2B222702278D2B2B25CEA54AD
:102030000133DBB20A780132D2B20A700A78D2B226
:10204000032AE2D9054802B01CBC90469946A24634
:10205000F0BD00239AE7C04620370000EC000020C6
:10206000F0B5C64600B506003C251E4B98461E4CF2
:102070003000C04707000C370300281AC21819782F
:10208000A1540133BB42F9D103360C35602DEFD199
:10209000164B1B78002BFDD1154B1B78002B19D14B
:1020A000144E3700144D0AE0124A137801331370AE
:1020B0001E20124B98470E4B1B78002B0AD1337809
:1020C0001E2BF1D900233B700D4C2800A04700289F
:1020D000FBD0E9E70023054A1370054A137004BCDE
:1020E0009046F0BD151F00000008002001010020EF
:1020F000AE010020140000208C030020890900009C
:10210000AD0C000010B507480023037043708370C6
:10211000C370037143718371C3710372024B98479B
:1021200010BDC046F800002061200000704700008C
:102130000C4B1B68002B06D1EFF31083002B07D04C
:102140000022094B1A70074A136801331360704765
:1021500072B6BFF35F8F0022044B1A700132024B3C
:102160001A70F0E70401002008010020150000208B
:10217000084B1A68013A1A601B68002B09D1064BFC
:102180001B78002B05D00122044B1A70BFF35F8F20
:1021900062B67047040100200801002015000020ED
:1021A00010B5082803D880001B4B1B589F46002001
:1021B00030E01A4B18692DE0194B1B6A9B059B0FE9
:1021C0001848D84026E0154B586923E0134B1B688C
:1021D00000209B071ED512491022CB681A42FCD062
:1021E0000E4B1B685B0701D40F4813E000200F4B18
:1021F00098470A4B9B681B041B0C58430AE050236A
:10220000074AD35C00205B0704D5044BD86801E083
:102210008020000210BDC046243700000C010020C1
:102220000008004000127A00006CDC02FD2700006C
:1022300070B50C490B6A047885784078012210400B
:1022400080014026B34303432A40D20180208343C8
:1022500013430322224012020348034013430B623C
:1022600070BDC04600080040FFFCFFFFF0B5CE4641
:10227000474680B5194B99469B6941788C4605784D
:102280000679C778447980780121084080000422CB
:102290009343034360460840C00004329343034322
:1022A0003800084080014027BB430343300008400A
:1022B000C0018026B3430343072005402D02084890
:1022C00003402B4321400903064803400B434A4681
:1022D00093610CBC90469946F0BDC0460008004092
:1022E000FFF8FFFFFFEFFFFF10B5037A9B061B0C03
:1022F00042899205920D134318494B608379C27944
:10230000134342888488224313434278D201134303
:102310000B600378042B11D0202B0ED1037B9B067E
:10232000028A1343C28912040D490A4013430B4A1F
:10233000936011680B4B0B43136010BD037B9B062E
:10234000028A1343C289120405490A401343034A0F
:102350009360136804210B431360EEE70C01002027
:102360000000FF0324040000082803D88000254B48
:102370001B589F46172044E0234A136A02210B434F
:10238000136200203DE0204A936902210B439361D0
:10239000002036E01C4A138A02210B4313820020DE
:1023A0002FE0194A938A02210B439382002028E0F0
:1023B00016490B68022213430B60134B9A841900D1
:1023C0000E32CB681A42FCD0104A91680E4BD9628B
:1023D00052689A6200229A8419001032CB681A421D
:1023E000FCD00A4B1B689BB2074A9384002008E08C
:1023F000054944228B5C022003438B54002000E0FB
:102400000020704748370000000800400C01002001
:10241000F0B5D6464F464646C0B58CB0C222D20073
:10242000534B9A6053494B681E2293431C3A134303
:102430004B6001AB1A7000244F4DE0B201A9A847D0
:102440000134182CF9D14D4C2368DB0448498A69C2
:102450005B0E1B044A48024013438B610AA8012308
:10246000437083700025C570037106330370457196
:10247000444B98470420444B984705AB00225D80AD
:102480009D809A71DA713F2159813B3919705A70D8
:1024900023689B0E3F2B69D005A80372B723DB008E
:1024A0000382072303733833C381384B984704A84A
:1024B00000254570012686700570354B984706202B
:1024C000314B99469847334B984701AC666065702D
:1024D0002572657204232370210001202E4B98463B
:1024E000984701202D4FB8476660657006239A46CD
:1024F00023702572657221000320C0470320B8476E
:102500006570534623702572657202236360210053
:102510000420C0470420B847267021000020164B35
:10252000984700201E4B98470720C8471049D022E3
:10253000CB681340D02BFBD11A4A0023137253727D
:102540009372D37201A901224A604B700B724B72D5
:1025500007330B700020104B984700200F4B984713
:102560000CB01CBC90469946A246F0BD203B93E7B8
:102570000008004000400041E12700002460800086
:10258000FFFF80FF6D22000069230000E9220000A8
:1025900031220000A9250000CD250000852600007D
:1025A0005527000000040040064A936908210B43A8
:1025B00093610122044B1A7019000B781342FCD16D
:1025C0007047C04600040040000C004070B5060093
:1025D00004000D782D0205434B78002B02D0802398
:1025E000DB021D434B7A002B02D080231B031D43CB
:1025F0004868012810D9431E184234D1022830D926
:102600000223002201325B009842FBD812023243BF
:10261000140080235B031D430B7A002B02D0802320
:102620009B031D43134A53785BB2002BFBDB124B19
:102630009847124B1E700F4A53785BB2002BFBDB9E
:102640000C4B9C601A0053785BB2002BFBDB094AF1
:102650005368802149020B401D435560084B984741
:1026600070BD0022D2E70402344380239B021D4345
:10267000D2E7C046000C004031210000080C0040A9
:102680007121000010B504000B4A53785BB2002B97
:10269000FBDB0A4B98470A4B1C70074A53785BB226
:1026A000002BFBDB044A516880235B020B43536021
:1026B000044B984710BDC046000C0040312100007B
:1026C000040C00407121000070B504001A4A5378D0
:1026D0005BB2002BFBDB194B9847194B1C70164A59
:1026E00053785BB2002BFBDB134E7068C004C00E46
:1026F000144B98470500124B1C707668F602F60FD3
:10270000114B1C700C4A53785BB2002BFBDB0A4B5D
:102710009C682402240C0D4B9847002E07D1012CF5
:1027200007D9210028000A4B9847050001E0013431
:10273000E540280070BDC046000C0040312100007B
:10274000040C0040A1210000080C00407121000091
:102750008933000010B50400064B9847064B1C70E7
:10276000064A53888021C9010B435380044B984784
:1027700010BDC04631210000020C0040000C00409A
:102780007121000010B504000F4B98470F4B1C70CF
:102790000F4A53881B05180F53880E490B4053806E
:1027A00053880D490B40538011008022D2014B8881
:1027B0001342FCD106494A880302064802401343EB
:1027C0004B80064B984710BD31210000020C0040A1
:1027D000000C0040FFF0FFFFFFBFFFFF7121000072
:1027E00010B50C7824020443024B9847A4B2024B64
:1027F0005C8010BD85270000000C004010B504006F
:10280000064B9847064B1C70064B5C882405240F2A
:10281000054B98472000054B984710BD312100001B
:10282000020C0040000C004071210000C92600008D
:1028300030B5D378002B35D11378802B29D01B06E7
:1028400080246402234354780225AC4306D1947853
:10285000002C20D18024A402234341605478013C01
:10286000012C1CD90D042D0CA024E4052C431C4381
:1028700084620D0CD02424062C431C438462D4783B
:10288000002C22D15B031CD59378012B1ED0416113
:1028900017E00023D7E7C024E4022343DDE70D4C13
:1028A0002340DFE741600C04240CA023DB05234315
:1028B00083620C0CD0231B0623438362D378002B46
:1028C00003D15378013B012B02D930BD8161F8E778
:1028D0008160FAE7FFFFFBFF10B50A00C109002382
:1028E000002904D14309DB0105498C4663441F24B8
:1028F0002040012181401800024B984710BDC0467E
:1029000000440041312800007047000010B5054B1D
:102910009847054B9847054B9847054B9847054BFB
:10292000984710BD112400002D2100000929000046
:10293000E50E00000929000010B5264A264B9A42F0
:1029400011D01A00254B9A420DD2254A03339B1A07
:102950009B0801339B0000221F481E498C5884505D
:1029600004329A42FAD11F4A1F4B9A420AD2D343E9
:102970001D495B1803218B4304339B18002102C2BD
:102980009342FCD1194AFF21194B8B439360FD39C7
:1029900090235B00174AD150174B9A7B2E318A4304
:1029A00020210A439A739A7B0C218A4308210A4307
:1029B0009A739A7B03218A4302210A439A730F4A2E
:1029C000536880210B4353600D4B98470D4B98473C
:1029D000FEE7C046903700000000002018000020ED
:1029E0000400002020000020EC08002000ED00E0A2
:1029F000000000000070004100480041004000411C
:102A000075360000D1320000F8B5064D80267600FC
:102A10003700AF610A20044CA0476E610A20A0472E
:102A2000F7E7C04600440041890900000122014B3C
:102A30001A707047AE01002000230A490022CA54D0
:102A400001333C2BFBD107498822CA540133602B48
:102A5000FBD13C3B03490022CA5401333C2BFBD140
:102A60007047C0460008002070B586B068461A4B13
:102A7000984704236A4653700225023B9370174C13
:102A800069462000164B984701226B461A700023B6
:102A900069464B708B70CB700A718B71CB7105934B
:102AA0004B719C330B810F4B9C3303930E4B049360
:102AB0000E4E30000E4B9847310020000D4B9847CA
:102AC0000D4BA360237C2B43237422780B498B5C32
:102AD0002B438B5406B070BD550B00008C030020B7
:102AE000650B000000080020280C0042B003002005
:102AF000350D0000DD0D00002D2A0000D000002063
:102B000070B58EB001246B461C70002501951D74B4
:102B10005D74DC741D750C22002106A8174B9847C4
:102B200080235B05029380239B02039301235B4276
:102B30000A930B930C93124B0D936B469D74114BA0
:102B40000693032224236946CA540F4E6A460F494E
:102B500030000F4B9847356828000E4B98471F23CD
:102B6000184084400C4B1C603268D369002BFCD1A8
:102B70002B68022213432B600EB070BDCF360000CD
:102B800003001F00A0252600C0030020000C004207
:102B900049120000AD11000000E100E010B5034B48
:102BA0009847034B9847034B984710BD392A0000BC
:102BB000012B0000692A000070B582B001AC01232E
:102BC00063700026A670237021000920044DA847D9
:102BD00026700223637021000E20A84702B070BD4A
:102BE000DD0F000010B5FA208000034B98478022CB
:102BF0009200024B5A6110BDB5090000004400412B
:102C000010B5017042708370C1700271437181719F
:102C1000C271037210BD0000F8B5CE46474680B5BC
:102C200001281CD0022821D0144C0825A561144E7F
:102C30003000144B994698476561FA204000124BCA
:102C400098470023002200213000104FB847A561AB
:102C50003000C84765610CBC90469946F8BD00231A
:102C6000962200210648094CA047DDE700230022F8
:102C700096210348054CA047D6E7C04600440041D2
:102C80002801002061200000B5090000012C00008F
:102C900000B583B000226B46DA71174B1B78002B0E
:102CA00028D0154B1A70154B1B6A5B04DB0F6A4664
:102CB000D371D379002B17D0114A138801339BB2FB
:102CC000138013889BB2032B14D90E4B1B78002B57
:102CD00010D00D4B984702200C4B98470C4B98474F
:102CE0000022074B1A8005E00022054B1A800132B2
:102CF000044B1A7003B000BDA00100200044004145
:102D00002401002026010020C9030000192C000026
:102D1000E52B000010B5FA208000074CA047074BB8
:102D2000984780229200064B9A610120054B9847F4
:102D30000548A04710BDC046B5090000B92B0000EA
:102D400000440041192C0000881300007047000067
:102D500070B582B06B46D88001AA11801488D888DB
:102D6000241A194B1B68E318FA221201934226DC3D
:102D7000154A1360154D16492000A84700B2154B9F
:102D80001880114B1E6814493000A84700B2134B3D
:102D90001880FA20800060430D49A8470400642091
:102DA00070430D49A8472418E1B20D4B1970FA2958
:102DB00000D9642100200B4B984702B070BDFA2265
:102DC0001201014B1A60D5E7400100209D3400003C
:102DD000DC0500009601002010270000940100206F
:102DE00090010020D131000010B50D4B1B78002B55
:102DF00003D00C4B1B78012B00D010BD0022084BD8
:102E00001A700378002BF8D0074A1388002111802C
:102E1000064A138001781800054B9847EDE7C04635
:102E2000B00100203C0100209C0100208E01002008
:102E3000512D000010B502490248034B984710BDC0
:102E40003801002034010020E92D00000023034A4E
:102E50001380034A1380034A138070473E01002009
:102E60009C010020A8010020F0B5C64600B507006F
:102E70000E000E4D0078C82460430D4B9846FF218C
:102E8000984728707B786B707B886B80094D307811
:102E90006043FF21C047287073786B7073886B8024
:102EA000054B984704BC9046F0BDC0463401002055
:102EB0009D340000380100204D2E000000B583B085
:102EC000019000914388002B0FD14A88002A0CD131
:102ED0000278002A02D10B78002B06D00122044B85
:102EE0001A70694601A8034B984703B000BDC0465D
:102EF0003C010020692E0000084A13780133DBB240
:102F00001370012206490A7006490A700C2B04D975
:102F1000054B1A700022014B1A70704744010020C3
:102F20008C0100209E010020B00100208022520070
:102F30000A4B9A610A4A138801339BB21380FA2222
:102F4000D201934205D90122064B1A700022044B8C
:102F50001A8080225200014B5A61704700440041A0
:102F60009C010020A1010020074B1B8801339BB26C
:102F7000FA22D201934203D90022034B1A807047F0
:102F8000014A1380FBE7C046A801002010B50C4C95
:102F900000220C4920000C4B984720680B4B9847A7
:102FA0000B4B1A5C1F231340012211009940094B5F
:102FB0001960637E01210B43637623685A7310BD49
:102FC000E4070020F92E0000A91B0000611C00008E
:102FD0006C37000000E100E010B58EB001AA0023BC
:102FE00000211370937093711381002050709172BF
:102FF000117391735173117453619361117713625B
:1030000053621385538593850133D372C0239B008C
:103010009380084C08492000084B98472268D37BCE
:103020005BB2002BFBDB138802210B4313800EB035
:1030300010BDC046E407002000180042851C0000B7
:1030400010B584B001AC2000074B984710230193C2
:1030500000236360013323720133E37221000020F7
:10306000024B984704B010BD510F0000650F0000DF
:1030700010B584B001AC2000074B98470F23019393
:1030800000236360013323720133E37221000120C6
:10309000024B984704B010BD510F0000650F0000AF
:1030A00010B5002201210448044B9847002101205B
:1030B000034B984710BDC046692F0000090E000061
:1030C000350E000010B5002200210448044B98473B
:1030D00000210020034B984710BDC0462D2F000053
:1030E000090E0000350E000010B5024B9847024B48
:1030F000984710BDD92F00008D2F000010B5054B4B
:103100009847054B9847054B9847054B9847054B03
:10311000984710BD4130000071300000C5300000FC
:10312000A1300000E930000070B5AAB0204D01AC1C
:10313000290020001F4B98470623E372F933636090
:10314000FD3B23760023A3752375E3756375E36167
:103150000122982162549439A1651749A16723621D
:10316000992162549439E1651449E16763629A21B7
:10317000625490392166124876316050A3629B33C5
:10318000E254903B63660F4A7933E2500E4E2200C0
:10319000290030000D4B984732680221936819428C
:1031A000FCD1136802210B4313602AB070BDC046E6
:1031B0000014004279160000050004000500050017
:1031C00005000A0005000B004C010020B5170000A7
:1031D000F8B504000D00124B1B78834210D0002C70
:1031E00013D0104F0022022138000F4EB0472A00A2
:1031F00003213800B0470D4B1D70094B1C70F8BD02
:103200000A4B1B788B42EAD1F5E7064F2A000221D0
:103210003800054EB047002203213800B047EAE7E6
:10322000450100204C0100203D1B0000460100200C
:10323000F8B504000D00124B1B78834210D0002C0F
:1032400013D0104F0022002138000F4EB0472A0043
:1032500001213800B0470D4B1D70094B1C70F8BDA3
:103260000A4B1B788B42EAD1F5E7064F2A00002172
:103270003800054EB047002201213800B047EAE788
:10328000470100204C0100203D1B000048010020A8
:1032900010B5014B984710BD2931000030B583B0FF
:1032A00001AC012363700022A2702370210003206F
:1032B000054DA84721000820A847044B08225A6161
:1032C000F8325A6103B030BDDD0F00000044004108
:1032D00070B5194B9847194B9847194B9847194B9C
:1032E0009847194B9847194B9847194B9847194BD2
:1032F0009847194B9847194B984719480023437032
:10330000642202704380174900224A700A704B8081
:10331000154B9847154E164D164CB047A847A04779
:10332000154B9847154B9847154B984796204000EA
:10333000144B9847F1E7C0460D29000049090000E9
:103340009D2B0000152D0000ED0000009D320000B7
:103350006507000091320000FD3000000904000004
:1033600098010020A4010020BD2E0000912C000037
:1033700059080000E9070000F9060000352E00009A
:10338000F501000089090000002243088B4274D334
:1033900003098B425FD3030A8B4244D3030B8B4256
:1033A00028D3030C8B420DD3FF22090212BA030C5F
:1033B0008B4202D31212090265D0030B8B4219D340
:1033C00000E0090AC30B8B4201D3CB03C01A524160
:1033D000830B8B4201D38B03C01A5241430B8B42A8
:1033E00001D34B03C01A5241030B8B4201D30B0391
:1033F000C01A5241C30A8B4201D3CB02C01A5241B8
:10340000830A8B4201D38B02C01A5241430A8B427A
:1034100001D34B02C01A5241030A8B4201D30B0263
:10342000C01A5241CDD2C3098B4201D3CB01C01A7D
:10343000524183098B4201D38B01C01A5241430987
:103440008B4201D34B01C01A524103098B4201D375
:103450000B01C01A5241C3088B4201D3CB00C01AE2
:10346000524183088B4201D38B00C01A524143085A
:103470008B4201D34B00C01A5241411A00D201467F
:10348000524110467047FFE701B5002000F0F0F808
:1034900002BDC0460029F7D076E7704703460B43CC
:1034A0007FD4002243088B4274D303098B425FD33D
:1034B000030A8B4244D3030B8B4228D3030C8B4269
:1034C0000DD3FF22090212BA030C8B4202D312124F
:1034D000090265D0030B8B4219D300E0090AC30B24
:1034E0008B4201D3CB03C01A5241830B8B4201D3D1
:1034F0008B03C01A5241430B8B4201D34B03C01ABA
:103500005241030B8B4201D30B03C01A5241C30A31
:103510008B4201D3CB02C01A5241830A8B4201D3A2
:103520008B02C01A5241430A8B4201D34B02C01A8C
:103530005241030A8B4201D30B02C01A5241CDD231
:10354000C3098B4201D3CB01C01A524183098B427C
:1035500001D38B01C01A524143098B4201D34B0165
:10356000C01A524103098B4201D30B01C01A5241C8
:10357000C3088B4201D3CB00C01A524183088B424F
:1035800001D38B00C01A524143088B4201D34B0038
:10359000C01A5241411A00D20146524110467047AA
:1035A0005DE0CA0F00D04942031000D340425340AF
:1035B00000229C4603098B422DD3030A8B4212D36F
:1035C000FC22890112BA030A8B420CD389019211A1
:1035D0008B4208D3890192118B4204D389013AD0DE
:1035E000921100E08909C3098B4201D3CB01C01AB3
:1035F000524183098B4201D38B01C01A52414309C6
:103600008B4201D34B01C01A524103098B4201D3B3
:103610000B01C01A5241C3088B4201D3CB00C01A20
:10362000524183088B4201D38B00C01A5241D9D238
:1036300043088B4201D34B00C01A5241411A00D2B9
:103640000146634652415B10104601D34042002BB5
:1036500000D54942704763465B1000D3404201B534
:10366000002000F005F802BD0029F8D016E77047E9
:103670007047C04670B500260C4D0D4C641BA4105D
:10368000A64209D1002600F073F80A4D0A4C641BCB
:10369000A410A64205D170BDB300EB58984701367F
:1036A000EEE7B300EB5898470136F2E77C370000AD
:1036B0007C3700007C37000080370000002310B505
:1036C0009A4200D110BDCC5CC4540133F8E703002A
:1036D0008218934200D1704719700133F9E7000056
:1036E0000D0E000000080042000C004200100042D5
:1036F00001000000020000000400000008000000BB
:1037000000100000002000000040000000800000C9
:10371000000001000000020000000400000008009A
:10372000888EE8EEB2210000AE210000AE2100003C
:103730001022000010220000C6210000B821000065
:10374000CC210000FE21000094230000742300001F
:10375000742300000024000086230000A223000040
:1037600078230000B0230000F02300000D0E0000BD
:10377000F8B5C046F8BC08BC9E467047B5000000CE
:10378000F8B5C046F8BC08BC9E4670478D000000E6
:10379000401F0000080000000000000000000000C2
:0837A000050000001F010000FC
:040000030000293997
:00000001FF
